:1000000002C1000031C100002FC100002DC100005D
:100010002BC1000029C1000027C1000025C100003C
:1000200023C1000021C100001FC100001DC100004C
:100030001BC1000019C1000017C1000015C100005C
:1000400013C1000011C100000FC100000DC100006C
:100050000BC1000009C1000007C10000AEC70000CD
:1000600003C100000C945008F2C70000FDC000005E
:10007000FBC00000F9C00000F7C00000F5C00000A0
:10008000F3C00000F1C00000EFC00000EDC00000B0
:10009000EBC00000E9C00000E7C00000E5C00000C0
:1000A000E3C00000E1C00000DFC00000DDC00000D0
:1000B000DBC00000D9C00000D7C00000D5C00000E0
:1000C000D3C00000D1C00000CFC00000CDC00000F0
:1000D000CBC00000C9C00000C7C00000C5C0000000
:1000E000C3C0000000002100240027002A002D00CA
:1000F0003000330001010000040107010A01000083
:100100002200250028002B002E00310034000201BF
:100110000000050108010B0100000A0B02090C0D8B
:100120000E080703040100000000000000000000AA
:1001300000000000000000000000000000000000BF
:10014000000000001211100000000000000000007C
:10015000000000000000000000000000000000009F
:1001600020002300260029002C002F00320000016F
:10017000000003010601090105050505070508083A
:100180000808020202020A0A080804040404010121
:100190000101010101010303030303030303040736
:1001A00007070C0C0C0C0C0C0C0C020202020606CD
:1001B0000606060606060B0B0B0B0B0B0B0B0102C0
:1001C0001020200808102040102040800201020169
:1001D0000804020101020408102040808040201021
:1001E000080402018004020180402010080402017A
:1001F00008040201010204081020408001020408E2
:1002000010204080CB0811241FBECFEFD1E2DEBF0B
:10021000CDBF00E00CBF12E0A0E0B2E0E8E2F9E1FF
:1002200000E00BBF02C007900D92AC3AB107D9F7BE
:1002300023E0ACEAB2E001C01D92A53EB207E1F7AF
:1002400011E0C3E0D1E000E006C021970109802F52
:10025000FE010E948A0CC230D10780E00807A9F78E
:100260000E9495090C94920CCBCE96E0899FD00108
:100270001124A65ABC4F90967C936E935F9791E0A1
:1002800091969C939197E091C703F091C803909148
:10029000C603992339F0309751F0811108C080913D
:1002A00076031994309719F05C968C91FACF0895E3
:1002B000CF92DF92EF92FF920F931F9396E0899F68
:1002C000F0011124E65AFC4F11A2278D30A12130F4
:1002D000310549F178F02230310509F44FC023305F
:1002E000310509F450C01F910F91FF90EF90DF90FE
:1002F000CF9008956623B9F361E070E0B6DF2FB7C1
:10030000F8948091B9029091BA02A091BB02B09189
:10031000BC022FBF8093B2039093B303A093B403A6
:10032000B093B503E0CF9FB7F894C090B902D090D6
:10033000BA02E090BB02F090BC029FBF0091B203F2
:100340001091B3032091B4033091B503C01AD10AC0
:10035000E20AF30A0091C4031091C50330E020E0E3
:100360000C151D052E053F0548F462E070E01F9155
:100370000F91FF90EF90DF90CF9077CF6111B3CFC7
:1003800063E070E0F4CF70E060E0F1CF8150823143
:1003900008F05AC0E82FF0E08827EE52FE4F8F4F4A
:1003A0000C948A0CF201F601E401EA01EE01240248
:1003B000F901FF01030209020D02110217021B02DB
:1003C00024021F0225022902809180008F778093EA
:1003D00080000895809180008F7DF9CF809180000A
:1003E000877FF5CF84B58F7784BD089584B58F7DE1
:1003F000FBCF8091B0008F778093B00008958091FB
:10040000B0008F7DF9CF809190008F77809390001E
:100410000895809190008F7DF9CF80919000877F23
:10042000F5CF8091A0008F778093A00008958091F0
:10043000A0008F7DF9CF8091A000877FF5CF8091BC
:1004400020018F77809320010895809120018F7D76
:10045000F9CF80912001877FF5CFCF93DF93282FAD
:1004600030E0F901E85EFE4F8491F901E254FE4F5D
:10047000D491F901E858FE4FC491CC2399F0811131
:1004800085DFEC2FF0E0EE0FFF1FE25AFE4FA59143
:10049000B491EC91ED2381E090E009F480E0DF91EC
:1004A000CF91089580E090E0FACF862FD6CF1F93AA
:1004B000CF93DF93282F30E0F901E85EFE4F84915F
:1004C000F901E254FE4FD491F901E858FE4FC4916E
:1004D000CC23A1F0162F811159DFEC2FF0E0EE0FA5
:1004E000FF1FE250FF4FA591B4918FB7F894EC91A4
:1004F000111108C0D095DE23DC938FBFDF91CF911F
:100500001F910895DE2BF8CF862F642FD0CFCF9385
:10051000DF9390E0FC01E254FE4F249188589E4FF7
:10052000FC0184918823C9F090E0880F991FFC0199
:10053000EC51FF4FA591B491FC01E250FF4FC591E2
:10054000D49161110DC09FB7F8948C9120958223AE
:100550008C938881282328839FBFDF91CF910895B2
:10056000623051F49FB7F8943C91822F8095832399
:100570008C93E8812E2BEFCF8FB7F894EC912E2B34
:100580002C938FBFEACF862F642FC1CF6F927F92BB
:100590008F929F92AF92BF92CF92DF92EF92FF9293
:1005A0000F931F93CF93DF9381E08093C6038FB7A0
:1005B000F8944091B9025091BA026091BB027091D7
:1005C000BC028FBF8091B6039091B703A091B8038E
:1005D000B091B903481B590B6A0B7B0B8091C20386
:1005E0009091C303B0E0A0E084179507A607B70772
:1005F00008F016C1C0E08091C003C81758F4E0911C
:10060000BC03F091BD03EC0FF11D62E080817FDF40
:10061000CF5FF1CF712C812C912C54018394809168
:10062000C103781608F05AC0072D10E0E091BE0310
:10063000F091BF03E00FF11F61E0808168DFE0917E
:10064000BE03F091BF03E00FF11F60E080812FDF58
:10065000D501C401072C04C0880F991FAA1FBB1F16
:100660000A94D2F76C017C01E094F094612C8091A3
:10067000C0036816F0F4C62DD0E0E091BC03F09101
:10068000BD03EC0FFD1F8081E8DE2496CC0FDD1F3B
:10069000C65ADC4F892B41F4888199818C299D2988
:1006A000998388836394E3CF888199818E219F21E8
:1006B000F7CFE091BE03F091BF03E00FF11F61E0BF
:1006C0008081F5DE8091BE039091BF03080F191F52
:1006D00060E0F80180811BDF7394A1CFCAE5D3E00D
:1006E000FE018FEF9FEF278D30A1232B21F4148E75
:1006F000968F858F11A2369623E0E639F20799F797
:10070000F12C96E0D92E8091C003F81608F04FC066
:10071000E12C0F2D10E0000F111F0E591C4F2091DE
:10072000C103E21608F041C0F801608171810E2C0E
:1007300002C0769567950A94E2F7F29E9001112423
:100740002E0D311DEAE5F3E080E0458D568D24172E
:10075000350709F469C08F5F36968A30B1F760FFBC
:1007600022C0EAE5F3E090E080E0448D411116C03C
:10077000E091BA03F091BB03E20FF31F4081D89ED2
:10078000F001D99EF00D1124E65AFC4F448F368FAC
:10079000258F10A2178E61E08BDD05C0019636967D
:1007A0008A30910511F7E394BACFF394ACCF80E08F
:1007B00099A19111892F2696F3E0C639DF07C1F779
:1007C0009FB7F8944091B9025091BA026091BB0270
:1007D0007091BC029FBF4093B6035093B7036093E0
:1007E000B8037093B9038823D9F080917B038823E1
:1007F000B9F08091790390917A03019789F48091FF
:100800007603DF91CF911F910F91FF90EF90DF90D2
:10081000CF90BF90AF909F908F907F906F900895F2
:100820001092C60380E0EDCF6170B6CF3FB7F89469
:100830008091B5029091B602A091B702B091B80232
:1008400026B5A89B05C02F3F19F00196A11DB11D2B
:100850003FBFBA2FA92F982F8827BC01CD01620F67
:10086000711D811D911D42E0660F771F881F991F22
:100870004A95D1F708958F929F92AF92BF92CF92EF
:10088000DF92EF92FF924B015C01D0DF6B017C01A4
:10089000CDDF6C197D098E099F09683E7340810583
:1008A0009105B0F321E0821A9108A108B10888EE01
:1008B000C80E83E0D81EE11CF11C81149104A10430
:1008C000B10431F7FF90EF90DF90CF90BF90AF90E1
:1008D0009F908F900895AF92BF92CF92DF92EF9248
:1008E000FF920F931F93CF93DF936C017B018B01DA
:1008F000040F151FEB015E01AE18BF08C017D1072A
:1009000059F06991D601ED91FC910190F081E02DB3
:10091000C6011995892B79F7C501DF91CF911F91F8
:100920000F91FF90EF90DF90CF90BF90AF90089520
:10093000FC01538D448D252F30E0842F90E0821BE5
:10094000930B541710F0CF96089501970895FC016A
:10095000918D828D981761F0A28DAE0FBF2FB11DC2
:100960005D968C91928D9F5F9F73928F90E008951A
:100970008FEF9FEF0895FC01918D828D981731F0D4
:10098000828DE80FF11D858D90E008958FEF9FEF28
:100990000895FC01918D228D892F90E0805C9F4FFE
:1009A000821B91098F73992708958DEB92E0F1DFF7
:1009B00021E0892B09F420E0822F0895FC01A48D09
:1009C000A80FB92FB11DA35ABF4F2C91848D90E071
:1009D00001968F739927848FA689B7892C93A08954
:1009E000B1898C91837080648C93938D848D9813DE
:1009F00006C00288F389E02D80818F7D8083089571
:100A0000EF92FF920F931F93CF93DF93EC0181E05E
:100A1000888F9B8D8C8D98131AC0E889F989808105
:100A200085FF15C09FB7F894EE89FF896083E88938
:100A3000F98980818370806480839FBF81E090E02A
:100A4000DF91CF911F910F91FF90EF900895F62EB7
:100A50000B8D10E00F5F1F4F0F731127E02E8C8D51
:100A60008E110BC00FB607FCFACFE889F989808197
:100A700085FFF5CFCE01A2DFF2CFEB8DEC0FFD2F7E
:100A8000F11DE35AFF4FF0829FB7F8940B8FEA896C
:100A9000FB8980818062D0CFCF93DF93EC01888D7A
:100AA0008823B1F0AA89BB89E889F9898C9185FDF1
:100AB00003C0808186FD0CC00FB607FCF7CF8C9178
:100AC00085FFF2CF808185FFEDCFCE0177DFEACFC2
:100AD000DF91CF91089580E090E0892B21F065DFD0
:100AE00081110E94000080E090E0892B49F080E0B5
:100AF00090E0892B29F00E94000081110E940000E3
:100B000080E090E0892B49F080E090E0892B29F08B
:100B10000E94000081110E94000080E090E0892B7B
:100B200049F080E090E0892B29F00E9400008111BB
:100B30000C9400000895089590E080E00895CF920D
:100B4000DF92EF92FF920F931F9360E08091E10399
:100B5000AEDC83E090E00197F1F761E08091E10382
:100B6000A6DC83E290E00197F1F760E08091E10379
:100B70009EDC8091E3039091E4039927FC01E25409
:100B8000FE4F6491FC01E858FE4FE491F0E0EE0F57
:100B9000FF1FE25AFE4F8591949100E412E42FE08A
:100BA00030E0462FB3D2611571058105910529F01A
:100BB0006F5F7F4F8F4F9F4F9F705DD520E030E07C
:100BC00040E05FE3E6D52AE23EE74CE05DE3E1D5B5
:100BD0006B017C0120E030E0A90118D5882349F0A1
:100BE00020E030E048EC53E4C701B601CED518163A
:100BF00034F4C12CD12C80E8E82E8FEBF82EC701FD
:100C0000B6011F910F91FF90EF90DF90CF90089564
:100C1000CF93DF93EC0160E08E8149DC61E08E814F
:100C200046DC60E08E8143DC8BE891E00197F1F7D0
:100C3000DF91CF910895CF92DF92EF92FF920F93C1
:100C40001F93CF93DF936C017C0187E0E80EF11CCA
:100C5000D0E0C0E0062F10E0B8010C2E02C0759560
:100C600067950A94E2F76170F70181917F011FDCBB
:100C70002196C430D10581F7C601DF91CF911F9134
:100C80000F91FF90EF90DF90CF90C2CFCF92DF9285
:100C9000EF92FF920F931F93CF93DF93EC01F62E09
:100CA000642F8C8104DC8D818F3F11F060E0FFDBCD
:100CB0000F2D10E08F8584FF23C06E0187E0C80EE2
:100CC000D11CF12CE12CB8010E2C02C07595679552
:100CD0000A94E2F76170F60181916F01E8DBFFEFA2
:100CE000EF1AFF0A88E0E816F10469F7CE01DF91F8
:100CF000CF911F910F91FF90EF90DF90CF9088CF11
:100D0000B80184E0759567958A95E1F7CE0193DF88
:100D10006F2DCE01DF91CF911F910F91FF90EF903A
:100D2000DF90CF9088CF40E0682F89EC93E0AECF82
:100D30009091DC03691710F06FEF690FE62FF0E078
:100D4000E753FC4F9489890F8068EDCF81E0EBDF9A
:100D50008BE39FE10197F1F70895CF93DF93823002
:100D600029F49091D80398609093D8038093DC0382
:100D70001092DD0380E48093DE0380E18093DF0343
:100D800080E58093E00361E08091CD03C0DB80913A
:100D9000CE038F3F11F061E0BADB61E08091CF03B9
:100DA000B6DBC9ECD3E09E01295C33408091D803C7
:100DB00084FD0AC084E090E02196281739073CF4AE
:100DC00061E08E81A4DBEFCF88E090E0F5CF8BE38C
:100DD0009DE00197F1F760E08091CD0368DB60E072
:100DE0008091CF0364DB8091CE038F3F11F060E0F0
:100DF0005EDB8091D80384FD2CC063E089EC93E036
:100E00001ADFCBE4D6E4CE010197F1F763E089EC79
:100E100093E011DF2197F1F763E089EC93E00BDFBA
:100E200083E592E00197F1F762E089EC93E003DF5C
:100E30008091D803806277DF84E08093D9038CE0CF
:100E400072DF84DF82E08093DA0386E0DF91CF9166
:100E50006ACF806268DF8BE496E40197F1F78091B6
:100E6000D803806260DF83E592E00197F1F780911B
:100E7000D803806258DFDCCF41E008DF81E090E0FA
:100E80000895FB0101900020E9F73197AF01461B5F
:100E9000570BDC01ED91FC910280F381E02D199458
:100EA0008F929F92AF92BF92EF92FF920F931F93F8
:100EB000CF93DF93CDB7DEB7A1970FB6F894DEBF1F
:100EC0000FBECDBF7C01FA01CB0119A2223008F47C
:100ED0002AE08E010F5D1F4F822E912CB12CA12C88
:100EE000BF01A5019401F4D4F901CA016A3004F5E7
:100EF000605DD8016E938D01232B242B252B81F768
:100F000090E080E0109719F0BD01C701BADFA1960B
:100F10000FB6F894DEBF0FBECDBFDF91CF911F910A
:100F20000F91FF90EF90BF90AF909F908F9008959A
:100F3000695CDFCFCF92DF92EF92FF92CF93DF9386
:100F40006C01990FEE08FF08F7FE20C06DE28DEBF3
:100F500092E056DDEC0144275527BA014C195D0992
:100F60006E097F092AE08DEB92E09ADFC80FD91F46
:100F70006BE372E08DEB92E084DF8C0F9D1FDF91BD
:100F8000CF91FF90EF90DF90CF9008952AE0B701C6
:100F9000A6018DEB92E084DFEC01EACF1092AD0266
:100FA0001092AC0260E080E0C3DE6EE372E089EC98
:100FB00093E067DF61E080E0BBCE1F920F920FB637
:100FC0000F9211242F933F938F939F93AF93BF93CF
:100FD0008091B9029091BA02A091BB02B091BC027B
:100FE0003091B40223E0230F2D3758F50196A11D4F
:100FF000B11D2093B4028093B9029093BA02A093DA
:10100000BB02B093BC028091B5029091B602A09150
:10101000B702B091B8020196A11DB11D8093B5022F
:101020009093B602A093B702B093B802BF91AF916C
:101030009F918F913F912F910F900FBE0F901F9016
:10104000189526E8230F0296A11DB11DD2CF1F923D
:101050000F920FB60F9211240BB60F922F933F935E
:101060004F935F936F937F938F939F93AF93BF93B0
:10107000EF93FF938DEB92E0A1DCFF91EF91BF9195
:10108000AF919F918F917F916F915F914F913F9120
:101090002F910F900BBE0F900FBE0F901F901895C1
:1010A0001F920F920FB60F9211240BB60F922F932F
:1010B0008F939F93EF93FF93E091CD02F091CE0237
:1010C0008081E091D302F091D40282FD1DC0908115
:1010D0008091D6028F5F8F732091D702821741F0E3
:1010E000E091D602F0E0E354FD4F958F8093D60255
:1010F000FF91EF919F918F912F910F900BBE0F90C9
:101100000FBE0F901F9018958081F2CFCF92DF9283
:10111000EF92FF920F931F93E82FF92F05C0015014
:1011200011092109310961F1908196239417B9F3CE
:1011300005C0015011092109310911F1908196234F
:101140009413F7CFC12CD12CE12CF12C0AC08FEFD6
:10115000C81AD80AE80AF80A0C151D052E053F051D
:1011600079F080818623841791F36C2D7D2D8E2D4F
:101170009F2D1F910F91FF90EF90DF90CF900895DA
:1011800060E070E080E090E01F910F91FF90EF90A1
:10119000DF90CF9008951092C0021092BF0288EEA7
:1011A00093E0A0E0B0E08093C1029093C202A093CC
:1011B000C302B093C40287E192E09093BE02809391
:1011C000BD0285EC90E09093CA028093C90284EC42
:1011D00090E09093CC028093CB0280EC90E09093CF
:1011E000CE028093CD0281EC90E09093D002809368
:1011F000CF0282EC90E09093D2028093D10286ECF1
:1012000090E09093D4028093D3021092D602109271
:10121000D7021092D8021092D9021092CC031092E9
:10122000CB0383E392E09093CA038093C90387E0E2
:101230008093CD038FEF8093CE0388E08093CF031C
:1012400089E08093D0038AE08093D1038BE0809380
:10125000D2038CE08093D3031092D4031092D50371
:101260001092D6031092D7031092D80381E075DD57
:1012700010925C031092600310925F03109261035E
:1012800089E292E090935B0380935A03E6E7F3E0F0
:101290001082148213821582369683E0E23BF807AF
:1012A000B9F783E092E09093BD038093BC0380E0A4
:1012B00092E09093BF038093BE0384E08093C003C9
:1012C00083E08093C10387E092E09093BB03809317
:1012D000BA038AE090E09093C3038093C20384EF43
:1012E00091E09093C5038093C4031092C8031092B9
:1012F000C7031092B6031092B7031092B80310926E
:10130000B9031092C60382E290E09093E2038093C7
:10131000E10384E290E09093E4038093E30361E0CF
:1013200082E2F5D860E084E2F2C8789484B5826005
:1013300084BD84B5816084BD85B5826085BD85B579
:10134000816085BD80916E00816080936E001092F7
:101350008100809181008260809381008091810072
:101360008160809381008091800081608093800003
:101370008091B10084608093B1008091B000816061
:101380008093B00080919100826080939100809161
:1013900091008160809391008091900081608093A2
:1013A00090008091A10082608093A1008091A100B3
:1013B00081608093A1008091A00081608093A00053
:1013C00080912101826080932101809121018160BF
:1013D0008093210180912001816080932001809180
:1013E0007A00846080937A0080917A008260809392
:1013F0007A0080917A00816080937A0080917A00EF
:10140000806880937A001092C10082E0A6DCC6DD7D
:1014100096DB00D17093AF026093AE02E091CD02F3
:10142000F091CE0282E08083E091C902F091CA027D
:101430001082E091CB02F091CC028FEC808310926D
:10144000D502E091D102F091D20286E08083E09152
:10145000CF02F091D002808180618083E091CF0241
:10146000F091D002808188608083E091CF02F0917A
:10147000D002808180688083E091CF02F091D00219
:1014800080818F7D80838AE0D82E9AE0E92EF12C2E
:101490007DD8C82F10E000E081111EC08091AC0201
:1014A0009091AD029093B3028093B20248DBB2D028
:1014B0007093B1026093B0020091B2021091B30236
:1014C000E801C80130E020E0009799F1B701ECD1C4
:1014D000CB012F5F3F4FF8CFC33201F3CA3221F166
:1014E00004F180ED8C0F8A30E0F4012B11F42EDC36
:1014F00055DD41E06C2F89EC93E0C8DB8091AC02B4
:101500009091AD02D89E8001D99E100D11240053F8
:1015100011090C0F111DC7FD1A951093AD02009310
:10152000AC0234D8C82FD8CF11DC38DD10E000E091
:10153000F8CF243031050CF05CC00D3281E0180783
:1015400008F057C0B801012E000C880B990B95D0FC
:1015500020E030E0A9015AD0882331F160E080E03A
:10156000E7DB6FE472E089EC93E08BDC61E080E024
:10157000DFDBA80170E060E02AE089EC93E090DC1A
:1015800030E020E0209739F0CE01B7018DD1EB019A
:101590002F5F3F4FF7CF61E081E0820FC9DB60E64C
:1015A00072E089EC93E06DDC63E772E08DEB92E032
:1015B00068DC8091B2029091B302BCDC65E872E015
:1015C0008DEB92E05EDC8091B0029091B102B2DCD2
:1015D00068E972E08DEB92E054DC8091AE0290916C
:1015E000AF02A8DC64EF71E080E090E044D973DAE8
:1015F0004FCFACDB63E672E089EC93E042DC60ED58
:1016000077E080E090E037D9C9DCCECF71D008F424
:1016100081E0089504D06894B111B1C0089594D0C8
:1016200088F09F5790F0B92F9927B751A0F0D1F0CB
:10163000660F771F881F991F1AF0BA95C9F712C055
:10164000B13081F09BD0B1E0089598C0672F782F1A
:101650008827B85F39F0B93FCCF3869577956795C1
:10166000B395D9F73EF490958095709561957F4F2D
:101670008F4F9F4F0895E89409C097FB3EF49095D3
:101680008095709561957F4F8F4F9F4F9923A9F05B
:10169000F92F96E9BB279395F695879577956795EA
:1016A000B795F111F8CFFAF4BB0F11F460FF1BC02E
:1016B0006F5F7F4F8F4F9F4F16C0882311F096E9C1
:1016C00011C0772321F09EE8872F762F05C066236F
:1016D00071F096E8862F70E060E02AF09A95660F28
:1016E000771F881FDAF7880F9695879597F90895E1
:1016F000990F0008550FAA0BE0E8FEEF1616170623
:10170000E807F907C0F012161306E407F50798F08A
:10171000621B730B840B950B39F40A2661F0232BA3
:10172000242B252B21F408950A2609F4A140A6951F
:101730008FEF811D811D089557FD9058440F551F4F
:1017400059F05F3F71F04795880F97FB991F61F043
:101750009F3F79F087950895121613061406551FBA
:10176000F2CF4695F1DF08C0161617061806991F26
:10177000F1CF86957105610508940895E894BB271B
:1017800066277727CB0197F90895B2DF08F48FEF2A
:1017900008950BD078C069D028F06ED018F095234A
:1017A00009F05AC05FC01124EACFC6DFA0F3959FAD
:1017B000D1F3950F50E0551F629FF001729FBB2738
:1017C000F00DB11D639FAA27F00DB11DAA1F649FE4
:1017D0006627B00DA11D661F829F2227B00DA11D97
:1017E000621F739FB00DA11D621F839FA00D611D1D
:1017F000221F749F3327A00D611D231F849F600D3E
:10180000211D822F762F6A2F11249F5750408AF076
:10181000E1F088234AF0EE0FFF1FBB1F661F771F02
:10182000881F91505040A9F79E3F510570F014C099
:10183000A6CF5F3FECF3983EDCF3869577956795EE
:10184000B795F795E7959F5FC1F7FE2B880F911D20
:101850009695879597F9089597F99F6780E870E0C6
:1018600060E008959FEF80EC089500240A94161616
:10187000170618060906089500240A94121613067E
:10188000140605060895092E0394000C11F488230C
:1018900052F0BB0F40F4BF2B11F460FF04C06F5F28
:1018A0007F4F8F4F9F4F0895AA1BBB1B51E107C06D
:1018B000AA1FBB1FA617B70710F0A61BB70B881FE0
:1018C000991F5A95A9F780959095BC01CD0108956F
:1018D000A1E21A2EAA1BBB1BFD010DC0AA1FBB1F34
:1018E000EE1FFF1FA217B307E407F50720F0A21BA6
:1018F000B30BE40BF50B661F771F881F991F1A9413
:1019000069F760957095809590959B01AC01BD013C
:10191000CF010895EE0FFF1F881F8BBF0790F69130
:08192000E02D1994F894FFCFAB
:101928000304051A1816023132333435363738397C
:101938002A30230000000000056B0498044C05C9F8
:1019480004A704BB0400000000C30284025502007F
:101958000000003C076B049C059B050D0A004749E5
:1019680056452056414C55452028636D293A005369
:1019780045545445442044495354414E43453A0044
:10198800636D00544F4F204C4F4E47204E554D42EB
:101998004552005365747465642064697374616E9C
:1019A80063653A200043757272656E7420646973CA
:1019B80074616E63653A2000496E697469616C20D0
:0C19C80064697374616E63653A2000006E
:00000001FF
