:1000000012C1000041C100003FC100003DC100001D
:100010003BC1000039C1000037C1000035C10000FC
:1000200033C1000031C100002FC100002DC100000C
:100030002BC1000029C1000027C1000025C100001C
:1000400023C1000021C100001FC100001DC100002C
:100050001BC1000019C1000017C100000C94CD099C
:1000600013C100000C94400A0C94170A0DC1000043
:100070000BC1000009C1000007C1000005C100005C
:1000800003C1000001C10000FFC00000FDC000006E
:10009000FBC00000F9C00000F7C00000F5C0000080
:1000A000F3C00000F1C00000EFC00000EDC0000090
:1000B000EBC00000E9C00000E7C00000E5C00000A0
:1000C000E3C00000E1C00000DFC00000DDC00000B0
:1000D000DBC00000D9C00000D7C00000D5C00000C0
:1000E000D3C00000005EBCE2613FDD83C29C7E2085
:1000F000A3FD1F41009D23BE46DB65F88C11AF3286
:10010000CA57E97400002100240027002A002D00AE
:100110003000330001010000040107010A01000062
:100120002200250028002B002E003100340002019F
:100130000000050108010B0100000A0B02090C0D6B
:100140000E0807030401000000000000000000008A
:10015000000000000000000000000000000000009F
:10016000000000001211100000000000000000005C
:10017000000000000000000000000000000000007F
:1001800020002300260029002C002F00320000014F
:10019000000003010601090105050505070508081A
:1001A0000808020202020A0A080804040404010101
:1001B0000101010101010303030303030303040716
:1001C00007070C0C0C0C0C0C0C0C020202020606AD
:1001D0000606060606060B0B0B0B0B0B0B0B0102A0
:1001E0001020200808102040102040800201020149
:1001F0000804020101020408102040808040201001
:100200000804020180040201804020100804020159
:1002100008040201010204081020408001020408C1
:1002200010204080BB0A11241FBECFEFD1E2DEBFF9
:10023000CDBF00E00CBF13E0A0E0B2E0E6EFF2E2D9
:1002400000E00BBF02C007900D92AE31B107D9F7A5
:1002500024E0AEE1B3E001C01D92AD37B207E1F793
:1002600011E0C3E1D1E000E006C021970109802F31
:10027000FE010E947111C231D10780E00807A9F781
:100280000E94CA0B0C947911BBCE96E0899FD001D5
:100290001124AE50BC4F90967C936E935F9791E083
:1002A00091969C939197E0915F04F09160049091F6
:1002B0005E04992339F0309751F0811108C0809184
:1002C0000E041994309719F05C968C91FACF08952A
:1002D0008150823108F05AC0E82FF0E08827EC58AE
:1002E000FE4F8F4F0C9471119401980186018C017F
:1002F0009001C6019B01A101A501AB01AF01B301B2
:10030000B901BD01C601C101C701CB0180918000C7
:100310008F77809380000895809180008F7DF9CF42
:1003200080918000877FF5CF84B58F7784BD089555
:1003300084B58F7DFBCF8091B0008F778093B00024
:1003400008958091B0008F7DF9CF809190008F77D4
:10035000809390000895809190008F7DF9CF8091D7
:100360009000877FF5CF8091A0008F778093A000C9
:1003700008958091A0008F7DF9CF8091A000877FA4
:10038000F5CF809120018F7780932001089580918F
:1003900020018F7DF9CF80912001877FF5CFCF930A
:1003A000DF93282F30E0F901E85CFE4F8491F901DA
:1003B000E252FE4FD491F901E856FE4FC491CC238E
:1003C00099F0811185DFEC2FF0E0EE0FFF1FE2586E
:1003D000FE4FA591B491EC91ED2381E090E009F4FA
:1003E00080E0DF91CF91089580E090E0FACF862FF2
:1003F000D6CF1F93CF93DF93282F30E0F901E85C2D
:10040000FE4F8491F901E252FE4FD491F901E85672
:10041000FE4FC491CC23A1F0162F811159DFEC2F90
:10042000F0E0EE0FFF1FE25EFE4FA591B4918FB793
:10043000F894EC91111108C0D095DE23DC938FBFA6
:10044000DF91CF911F910895DE2BF8CF862F642F77
:10045000D0CFCF93DF9390E0FC01E252FE4F249186
:1004600088569E4FFC0184918823C9F090E0880F44
:10047000991FFC01EC5FFE4FA591B491FC01E25E77
:10048000FE4FC591D49161110DC09FB7F8948C9126
:10049000209582238C938881282328839FBFDF9116
:1004A000CF910895623051F49FB7F8943C91822F18
:1004B000809583238C93E8812E2BEFCF8FB7F89410
:1004C000EC912E2B2C938FBFEACF862F642FC1CFB8
:1004D0003FB7F89480912F0390913003A09131039E
:1004E000B091320326B5A89B05C02F3F19F00196A5
:1004F000A11DB11D3FBFBA2FA92F982F8827BC017E
:10050000CD01620F711D811D911D42E0660F771FA5
:10051000881F991F4A95D1F708958F929F92AF92A5
:10052000BF92CF92DF92EF92FF926B017C01D0DFFE
:100530004B015C01C114D104E104F104B1F0C8DF46
:10054000681979098A099B09683E734081059105FC
:1005500088F321E0C21AD108E108F10888EE880E7C
:1005600083E0981EA11CB11CE5CFFF90EF90DF90B7
:10057000CF90BF90AF909F908F9008952FB7F89431
:1005800060912B0370912C0380912D0390912E0389
:100590002FBF08950F931F93CF93DF93C82FD62FAC
:1005A00086E0C89FF0011124EE50FC4F11A2878D08
:1005B00090A181309105E1F058F082309105D1F1A0
:1005C000039709F43CC0DF91CF911F910F910895DB
:1005D0006623C9F361E070E08C2F57DECFDF6093B4
:1005E0004A0470934B0480934C0490934D04EBCFDA
:1005F000C5DF00914A0410914B0420914C043091C6
:100600004D04AB01BC01401B510B620B730B80917D
:100610005C0490915D04B0E0A0E084179507A60704
:10062000B70740F462E070E08C2FDF91CF911F910B
:100630000F912BCE63E070E0D111C5CFF5CF70E004
:1006400060E0F2CF6F927F928F929F92AF92BF92B3
:10065000CF92DF92EF92FF920F931F93CF93DF938E
:1006600081E080935E048ADF00914E0410914F0474
:100670002091500430915104AB01BC01401B510B3F
:10068000620B730B80915A0490915B04B0E0A0E080
:1006900084179507A607B70708F00CC1C0E0809142
:1006A0005804C81758F4E0915404F0915504EC0F25
:1006B000F11D62E08081CDDECF5FF1CF712C812C06
:1006C000912C5401839480915904781608F05AC0F3
:1006D000072D10E0E0915604F0915704E00FF11F50
:1006E00061E08081B6DEE0915604F0915704E00F9E
:1006F000F11F60E080817DDED501C401072C04C0BC
:10070000880F991FAA1FBB1F0A94D2F76C017C01A6
:10071000E094F094612C809158046816F0F4C62D92
:10072000D0E0E0915404F0915504EC0FFD1F80815E
:1007300036DE2496CC0FDD1FCE50DC4F892B41F4E2
:10074000888199818C299D29998388836394E3CF3B
:10075000888199818E219F21F7CFE0915604F091F5
:100760005704E00FF11F61E0808143DE8091560461
:1007700090915704080F191F60E0F801808169DE2D
:100780007394A1CFC2EFD3E0FE018FEF9FEF278DCF
:1007900030A1232B21F4148E968F858F11A23696CB
:1007A00024E0EE32F20799F7F12C96E0D92E8091F1
:1007B0005804F81608F04FC0E12C0F2D10E0000F80
:1007C000111F06501C4F20915904E21608F041C039
:1007D000F801608171810E2C02C0769567950A94AC
:1007E000E2F7F29E900111242E0D311DE2EFF3E0AD
:1007F00080E0458D568D2417350709F45FC08F5F63
:1008000036968A30B1F760FF22C0E2EFF3E090E065
:1008100080E0448D411116C0E0915204F0915304E0
:10082000E20FF31F4081D89EF001D99EF00D1124F4
:10083000EE50FC4F448F368F258F10A2178E61E04B
:10084000A9DE05C0019636968A30910511F7E3942A
:10085000BACFF394ACCF10E089A18111182F26965E
:10086000F4E0CE32DF07C1F789DE60934E04709367
:100870004F0480935004909351041123D9F0809138
:1008800013048823B9F08091110490911204019708
:1008900089F480910E04DF91CF911F910F91FF9009
:1008A000EF90DF90CF90BF90AF909F908F907F9010
:1008B0006F90089510925E0480E0EDCF6170C0CF1C
:1008C000AF92BF92CF92DF92EF92FF920F931F935E
:1008D000CF93DF936C017B018B01040F151FEB019C
:1008E0005E01AE18BF08C017D10759F06991D60153
:1008F000ED91FC910190F081E02DC6011995892BB5
:1009000079F7C501DF91CF911F910F91FF90EF9083
:10091000DF90CF90BF90AF900895FC01538D448D30
:10092000252F30E0842F90E0821B930B541710F09A
:10093000CF96089501970895FC01918D828D9817A7
:1009400061F0A28DAE0FBF2FB11D5D968C91928D7F
:100950009F5F9F73928F90E008958FEF9FEF0895B0
:10096000FC01918D828D981731F0828DE80FF11D79
:10097000858D90E008958FEF9FEF0895FC01918D94
:10098000228D892F90E0805C9F4F821B91098F738D
:100990009927089583E393E0F1DF21E0892B09F49F
:1009A00020E0822F0895FC01A48DA80FB92FB11D5E
:1009B000A35ABF4F2C91848D90E001968F73992795
:1009C000848FA689B7892C93A089B1898C91837073
:1009D00080648C93938D848D981306C00288F3896C
:1009E000E02D80818F7D80830895EF92FF920F9399
:1009F0001F93CF93DF93EC0181E0888F9B8D8C8DCB
:100A000098131AC0E889F989808185FF15C09FB7BE
:100A1000F894EE89FF896083E889F9898081837081
:100A2000806480839FBF81E090E0DF91CF911F9130
:100A30000F91FF90EF900895F62E0B8D10E00F5F51
:100A40001F4F0F731127E02E8C8D8E110BC00FB628
:100A500007FCFACFE889F989808185FFF5CFCE01BF
:100A6000A2DFF2CFEB8DEC0FFD2FF11DE35AFF4F0C
:100A7000F0829FB7F8940B8FEA89FB8980818062AE
:100A8000D0CFCF93DF93EC01888D8823B1F0AA8972
:100A9000BB89E889F9898C9185FD03C0808186FD39
:100AA0000CC00FB607FCF7CF8C9185FFF2CF808189
:100AB00085FFEDCFCE0177DFEACFDF91CF910895AB
:100AC00080E090E0892B21F065DF81110E94000019
:100AD00080E090E0892B49F080E090E0892B29F0BC
:100AE0000E94000081110E94000080E090E0892BAC
:100AF00049F080E090E0892B29F00E9400008111EC
:100B00000E94000080E090E0892B49F080E090E0B6
:100B1000892B29F00E94000081110C940000089597
:100B2000089590E080E00895DC0180E0615090F04D
:100B30009D919827E92FEF70F0E0EC51FF4F249141
:100B4000E92FE295EF70F0E0EC50FF4FE491822F37
:100B50008E27ECCF0895DC012C911196ED91FC913C
:100B6000F8948181822B81839281322F3095932357
:100B7000928387E090E00197F1F78181832381835D
:100B800083E290E00197F1F790817894EFECF0E048
:100B90003197F1F7922381E009F480E00895FC0198
:100BA00090810180F281E02D292F209560FF14C0F3
:100BB000F8948281822382838181892B8183A3E2BD
:100BC000B0E01197F1F78281982B9283789487EDAA
:100BD00090E00197F1F70895F8948281822382834F
:100BE0008181892B8183AFEFB0E01197F1F782818A
:100BF000982B928378948FE090E0EBCFDF92EF9286
:100C0000FF920F931F93CF93DF93EC01D62EE42E28
:100C100008E010E0FF24F39461E08D2D8F2109F4AA
:100C200060E0CE01BCDFFF0C01501109A9F7E11013
:100C300010C0F894E981FA81918188818095892397
:100C40008183E981FA8192818881809589238283D9
:100C50007894DF91CF911F910F91FF90EF90DF90EB
:100C60000895EF92FF920F931F93CF93DF938C0120
:100C70007B0140E065E5C2DFE70188E0E80EF11C9A
:100C8000699140E0C801BADFCE15DF05C9F7DF91F1
:100C9000CF911F910F91FF90EF900895FC019081EB
:100CA0000180F281E02DF8948181292F2095822303
:100CB000818378943DE743E050E0315029F1DA0137
:100CC0001197F1F780818923C1F3F89482818223FF
:100CD00082838181892B81837894ABE7B7E0119778
:100CE000F1F7F894818182238183A3E1B1E0119728
:100CF000F1F78081982381E009F080E07894E3E6C1
:100D0000F6E03197F1F7089580E00895AF92BF9231
:100D1000CF92DF92EF92FF920F931F93CF93DF93C7
:100D20008B01BC018091D6039091D7039ADF40E0FC
:100D30006EEB8091D6039091D70360DFE8016801E4
:100D400089E0C80ED11CA090D603B090D70388E0EC
:100D5000E82EF12C10E001E0C501FDDE8111102B21
:100D6000000F81E0E81AF108B9F71993CC16DD06F7
:100D700051F78091D6039091D70390DF91E08130B5
:100D800009F090E0892FDF91CF911F910F91FF9093
:100D9000EF90DF90CF90BF90AF9008950F931F9387
:100DA000CF93DF9300D000D000D0CDB7DEB78C0159
:100DB0008091D6039091D70371DF811102C080E04A
:100DC0001DC0BE016F5F7F4FC801A0DF8823B9F34C
:100DD00068E0CE010196A8DE99858913F0CF8D8158
:100DE0008F33B9F020F48F3151F789E007C08F3588
:100DF00021F08F3721F78CE001C08BE029960FB6E8
:100E0000F894DEBF0FBECDBFDF91CF911F910F9140
:100E100008958AE0F3CFCF92DF92EF92FF920F9383
:100E20001F9360E080917904E4DA83E090E0019719
:100E3000F1F761E080917904DCDA83E290E00197D8
:100E4000F1F760E080917904D4DA80917B0490918D
:100E50007C049927FC01E252FE4F6491FC01E856A4
:100E6000FE4FE491F0E0EE0FFF1FE258FE4F859138
:100E7000949100E412E42FE030E0462F37D361155F
:100E800071058105910529F06F5F7F4F8F4F9F4F4F
:100E90009F700E940F1020E030E040E05FE30E946E
:100EA0009D102AE23EE74CE05DE30E949D106B013D
:100EB0007C0120E030E0A9010E94DF0F882351F07F
:100EC00020E030E048EC53E4C701B6010E949910DD
:100ED000181634F4C12CD12C80E8E82E8FEBF82EB4
:100EE000C701B6011F910F91FF90EF90DF90CF9057
:100EF0000895BF92CF92DF92EF92FF920F931F93CC
:100F0000CF93DF93EC01B62EC72E8D85811104C0DF
:100F1000CE01C4DE81110EC01B861D861C8680E0BA
:100F2000DF91CF911F910F91FF90EF90DF90CF90C5
:100F3000BF90089540E060EFCE0160DE01E0E12C5B
:100F4000D12C11E0CE0107DEF82ECE0104DE91E0B7
:100F5000F91218C0813099F51134F0F2DB86D11006
:100F600002C081E08D878B818823B1F22396EB2D1F
:100F7000FC2DCF01089629912193E817F907D9F79D
:100F800081E0CECFEE2DF0E0F8120FC08B85181760
:100F9000A0F4DE01AE0FBF1F13968C91802379F46D
:100FA000F12C193008F41C87D12EEC0FFD1F838122
:100FB000902F9095892383830AC08113F1CFFE017E
:100FC000EE0DF11D8381802B8383FF24F3946F2D1D
:100FD000CE01E5DD1F5F000F11F4E39401E087E02F
:100FE0008E1508F0AFCFB8CFCF93DF93EC0160E060
:100FF0008E81FFD961E08E81FCD960E08E81F9D9C4
:101000008BE891E00197F1F7DF91CF910895CF92AE
:10101000DF92EF92FF920F931F93CF93DF936C01B8
:101020007C0187E0E80EF11CD0E0C0E0062F10E064
:10103000B8010C2E02C0759567950A94E2F76170AD
:10104000F70181917F01D5D92196C430D10581F76F
:10105000C601DF91CF911F910F91FF90EF90DF902C
:10106000CF90C2CFCF92DF92EF92FF920F931F9358
:10107000CF93DF93EC01F62E642F8C81BAD98D814A
:101080008F3F11F060E0B5D90F2D10E08F8584FF00
:1010900023C06E0187E0C80ED11CF12CE12CB801F1
:1010A0000E2C02C0759567950A94E2F76170F601FF
:1010B00081916F019ED9FFEFEF1AFF0A88E0E816D1
:1010C000F10469F7CE01DF91CF911F910F91FF904D
:1010D000EF90DF90CF9088CFB80184E07595679549
:1010E0008A95E1F7CE0193DF6F2DCE01DF91CF918D
:1010F0001F910F91FF90EF90DF90CF9088CF40E04D
:10110000682F81E694E0AECF90917404691710F0D7
:101110006FEF690FE62FF0E0EF59FB4F9489890FCD
:101120008068EDCF81E0EBDF8BE39FE10197F1F782
:101130000895CF93DF93823029F4909170049860E2
:1011400090937004809374041092750480E48093EB
:10115000760480E18093770480E58093780461E0F1
:101160008091650476D9809166048F3F11F061E02B
:1011700070D961E0809167046CD9C1E6D4E09E012A
:10118000215634408091700484FD0AC084E090E0D0
:101190002196281739073CF461E08E815AD9EFCFA8
:1011A00088E090E0F5CF8BE39DE00197F1F760E0F8
:1011B000809165041ED960E0809167041AD98091FE
:1011C00066048F3F11F060E014D98091700484FDB3
:1011D0002CC063E081E694E01ADFCBE4D6E4CE01D4
:1011E0000197F1F763E081E694E011DF2197F1F7D1
:1011F00063E081E694E00BDF83E592E00197F1F78D
:1012000062E081E694E003DF80917004806277DF22
:1012100084E0809371048CE072DF84DF82E080934D
:10122000720486E0DF91CF916ACF806268DF8BE441
:1012300096E40197F1F780917004806260DF83E5A6
:1012400092E00197F1F780917004806258DFDCCF63
:1012500041E008DF81E090E00895FB01019000206B
:10126000E9F73197AF01461B570BDC01ED91FC917B
:101270000280F381E02D19948F929F92AF92BF92DA
:10128000EF92FF920F931F93CF93DF93CDB7DEB70B
:10129000A1970FB6F894DEBF0FBECDBF7C01FA0157
:1012A000CB0119A2223008F42AE08E010F5D1F4FF6
:1012B000822E912CB12CA12CBF01A5019401EFD756
:1012C000F901CA016A3004F5605DD8016E938D01A1
:1012D000232B242B252B81F790E080E0109719F029
:1012E000BD01C701BADFA1960FB6F894DEBF0FBEED
:1012F000CDBFDF91CF911F910F91FF90EF90BF90E5
:10130000AF909F908F900895695CDFCFCF93DF936C
:10131000AC0170E060E02AE083E393E0ADDFEC0134
:101320006EE472E083E393E098DF8C0F9D1FDF9102
:10133000CF91089592CF61E572E081E694E0FADF03
:1013400060ED77E080E090E0E8C8CF93C82F60E0E0
:1013500080E0DADEC1110DC0109224031092230345
:1013600060E672E081E694E0E5DF61E080E0CF9145
:10137000CBCE109221031092200361E772E081E648
:1013800094E0D8DF60E081E694E062DF63E481E628
:1013900094E05EDF6EE672E0E5CF1F920F920FB62B
:1013A0000F9211242F933F938F939F93AF93BF93EB
:1013B00080912B0390912C03A0912D03B0912E03CB
:1013C00030912A0323E0230F2D3758F50196A11DF4
:1013D000B11D20932A0380932B0390932C03A09399
:1013E0002D03B0932E0380912F0390913003A09191
:1013F0003103B09132030196A11DB11D80932F03DB
:1014000090933003A0933103B0933203BF91AF9117
:101410009F918F913F912F910F900FBE0F901F9032
:10142000189526E8230F0296A11DB11DD2CF1F9259
:101430000F920FB60F9211240BB60F922F933F937A
:101440004F935F936F937F938F939F93AF93BF93CC
:10145000EF93FF9383E393E0A6DAFF91EF91BF91BF
:10146000AF919F918F917F916F915F914F913F913C
:101470002F910F900BBE0F900FBE0F901F901895DD
:101480001F920F920FB60F9211240BB60F922F934B
:101490008F939F93EF93FF93E0914303F091440365
:1014A0008081E0914903F0914A0382FD1DC0908143
:1014B00080914C038F5F8F7320914D03821741F011
:1014C000E0914C03F0E0ED5CFC4F958F80934C0372
:1014D000FF91EF919F918F912F910F900BBE0F90E5
:1014E0000FBE0F901F9018958081F2CFCF92DF92A0
:1014F000EF92FF920F931F93E82FF92F05C0015031
:1015000011092109310961F1908196239417B9F3EA
:1015100005C0015011092109310911F1908196236B
:101520009413F7CFC12CD12CE12CF12C0AC08FEFF2
:10153000C81AD80AE80AF80A0C151D052E053F0539
:1015400079F080818623841791F36C2D7D2D8E2D6B
:101550009F2D1F910F91FF90EF90DF90CF900895F6
:1015600060E070E080E090E01F910F91FF90EF90BD
:10157000DF90CF900895109236031092350388EED5
:1015800093E0A0E0B0E08093370390933803A093FA
:101590003903B0933A038AE292E090933403809344
:1015A000330385EC90E09093400380933F0384ECF9
:1015B00090E0909342038093410380EC90E09093FD
:1015C00044038093430381EC90E09093460380931F
:1015D000450382EC90E0909348038093470386ECA8
:1015E00090E090934A038093490310924C03109229
:1015F0004D0310924E0310924F0360E088E20E9468
:101600002902E6E0F2E0E491E093E403E0ECF1E0AB
:10161000E491F0E0EE0FFF1FE258FE4F85919491A8
:101620009093E6038093E5031092EF031092F10389
:101630001092F0031092EE031092ED031092EC035F
:101640001092EB031092EA031092E9031092E80360
:101650001092E70384EE93E09093D7038093D60330
:101660001092D4031092D5031092D00389E0809396
:10167000D10391E09093D2039093D3031092E303AC
:101680001092E203109264041092630426E432E0A4
:10169000309362042093610497E0909365049FEF78
:1016A0009093660498E090936704809368048AE0BE
:1016B000809369048BE080936A048CE080936B04D0
:1016C00010926C0410926D0410926E0410926F04CC
:1016D0001092700481E02DDD1092F4031092F80353
:1016E0001092F7031092F9038CE392E09093F303C6
:1016F0008093F203EEE0F4E01082148213821582EC
:10170000369684E0EA34F807B9F78CE092E09093DB
:1017100055048093540488E092E09093570480939A
:10172000560484E0809358048093590480E192E049
:1017300090935304809352048AE090E090935B046A
:1017400080935A0484EF91E090935D0480935C044D
:101750001092600410925F0410924E0410924F0495
:10176000109250041092510410925E0482E290E0B4
:1017700090937A048093790484E290E090937C04BF
:1017800080937B0461E082E20E94290260E084E2AF
:101790000C942902CF93DF93CDB7DEB761970FB6D4
:1017A000F894DEBF0FBECDBF789484B5826084BD4F
:1017B00084B5816084BD85B5826085BD85B5816055
:1017C00085BD80916E00816080936E0010928100D3
:1017D000809181008260809381008091810081608E
:1017E000809381008091800081608093800080914F
:1017F000B10084608093B1008091B00081608093DB
:10180000B00080919100826080939100809191005E
:10181000816080939100809190008160809390001E
:101820008091A10082608093A1008091A1008160DD
:101830008093A1008091A00081608093A00080919E
:101840002101826080932101809121018160809338
:1018500021018091200181608093200180917A0094
:10186000846080937A0080917A00826080937A000D
:1018700080917A00816080937A0080917A008068FC
:1018800080937A001092C10082E053DC80E437DC60
:1018900000E012E0F80161918F0181E694E0D8DC6C
:1018A000F2E008301F07B1F780E04FDDE091D6038A
:1018B000F091D7031386158614861286118610863A
:1018C000178216821582148213821092D40310920A
:1018D000D50301E0BE016F5F7F4F8091D6039091E9
:1018E000D70307DB882309F460C067E0CE010196C7
:1018F0001BD998858913EECF8091D003811123C025
:101900008091D6039091D703C9D9BE016F5F7F4FF5
:101910008091D6039091D703A4D940E064EB8091E5
:10192000D6039091D7036AD98091D6039091D703BB
:1019300012D9182F8091D6039091D703AFD91111E6
:1019400002C00093D0031091D1038981803109F442
:1019500032C3CE01019622DA8117C0F48091D103FF
:101960008093D1038091D4038F5F8093D4038981C6
:10197000883231F0A0F4803119F0823209F0AACF18
:101980008091D5038F5F8093D503A4CF8981803167
:1019900011F48CE0E5CFCE01019600DAE1CF8B3374
:1019A00079F3823409F096CFEBCF35DA0CD370930C
:1019B0001F0360931E03E0914303F091440382E010
:1019C0008083E0913F03F09140031082E091410356
:1019D000F09142038FEC808310924B03E091470318
:1019E000F091480386E08083E0914503F09146033F
:1019F000808180618083E0914503F091460380817E
:101A000088608083E0914503F0914603808180687F
:101A10008083E0914503F091460380818F7D808330
:101A2000BAE0EB2EFF24F3940AE010E08091D60395
:101A30009091D70333D940E06CEC8091D60390911C
:101A4000D703DCD84091D00364E48091D603909111
:101A5000D703D4D88091D203882399F1E091D103A0
:101A6000E950FEEE4F2EF2E05F2EE33038F4F0E066
:101A7000EE0FFF1FE05EFD4F408051808091D30349
:101A8000882309F47DC08091D003811179C00E9420
:101A9000BE024B015C01052C000C660877088091A2
:101AA000D6039091D70357D8813059F00E94BE02D7
:101AB0006419750986099709681579058A059B05D2
:101AC00070F3E091D603F091D70313861586148640
:101AD000128611861086178216821582148213824E
:101AE000BE01665F7F4F8091D6039091D70301DAE4
:101AF00081114DC060E070E08EEF92EC64D2709383
:101B000029036093280387D95ED2709327036093DB
:101B10002603809125038111A7C180912303909111
:101B20002403892B09F069C10E942203D82E88233F
:101B300009F48EC0B12CA12C23E2D21609F48FC077
:101B40004AE2D41609F47EC0D416B4F080ED8D0DAF
:101B50008A3090F441E06D2D81E694E083DAEA9CCE
:101B6000C001EB9C900D11245C01AD0CB11CD7FCA5
:101B7000BA9450E3A51AB1080E942203D82EDCCFF4
:101B8000B201550C880B990B0E948D029ACF67E029
:101B9000CE010A960E94940599898913ABCF809152
:101BA000D6039091D7037AD8882309F4A3CFBE0136
:101BB0006F5F7F4FCE010A96A9D8882309F49ACF88
:101BC00068E0CE0101960E9494059985891392CF11
:101BD0006A8170E0762F6627770F770F770F29815C
:101BE00048E0249F90011124262B372B8A858031D1
:101BF000C9F4688570E08F81FB01E81BF109CF0112
:101C00009695982F88279795879536D3CB0140973F
:101C1000B90153E0660F771F5A95E1F760789C0190
:101C2000260F371F2138F4EE3F070CF463CFB901BC
:101C3000330F880B990BF5D120E030E040E05CE3F6
:101C40007CD25CCF6FDA80E080DBB12CA12C94CF0A
:101C50001092240310922303109222035DC0B092CD
:101C60002403A0922303A114B104B1F3F092220340
:101C7000C50130E020E0B801EBD2CB012F5F3F4F30
:101C80000097C9F7243031050CF044C085E6A8164A
:101C9000B10408F03FC080911E0390911F03A81665
:101CA000B90608F037C03EDA60E080E02DDA6EE772
:101CB00072E081E694E03EDB61E080E025DA40916D
:101CC00023035091240370E060E02AE081E694E071
:101CD000D3DA809123039091240330E020E0009731
:101CE00031F0B801B5D2CB012F5F3F4FF8CF61E0A3
:101CF00081E0820F09DA6FE872E081E694E01ADB96
:101D000060ED77E080E090E00E948D020BDA81E0E8
:101D10001CDB03CF07DA0FDB80E0FACFAB2871F4CE
:101D200001DA109222031092250380E00EDB10925C
:101D300021031092200381E008DB5FC0F3D981E02A
:101D400004DBB12CA12C87C0B0922103A092200308
:101D5000A114B10481F310922203F0922503C5016E
:101D600030E020E0B80174D2CB012F5F3F4F0097E5
:101D7000C9F7233031050CF072C045E1A41AB1084F
:101D800052E2A516B10408F06AC0CCD960E080E048
:101D9000BBD962E972E081E694E0CCDA61E080E0F0
:101DA000B3D9409120035091210370E060E02AE014
:101DB00081E694E061DA809120039091210330E084
:101DC00020E0009731F0B80143D2CB012F5F3F4FA5
:101DD000F8CF61E081E0820F97D960E081E694E07E
:101DE00037DA60EA72E081E694E0A4DA60ED77E049
:101DF00080E090E00E948D0295D980912203882393
:101E000099F1A0902003B09021030E942203D82EC4
:101E1000882309F499CFE3E2DE1609F495CFFAE2BC
:101E2000DF1609F47BCFDF16B4F080ED8D0D8A301C
:101E300090F441E06D2D81E694E014D9EA9CC00154
:101E4000EB9C900D11248D0D911DD7FC9A955C0192
:101E500020E3A21AB1080E942203D82EDCCFF09210
:101E6000220360D968DA67CF80912503882309F4BB
:101E700051C00E9422038334C1F4109224031092B3
:101E80002303109221031092200310922203109238
:101E9000250348D962EA72E081E694E04BDA68EE05
:101EA00073E080E090E00E948D02809125038823FA
:101EB00089F1C0902803D090290360E080E024D904
:101EC00063EB72E081E694E035DA61E080E01CD9F2
:101ED000A60170E060E02AE081E694E0CDD980912F
:101EE00020039091210330E020E0009731F0B80109
:101EF000AFD1CB012F5F3F4FF8CF61E081E0820F80
:101F000003D960E081E694E0A3D960EA72E081E65B
:101F100094E010DA61EC72E083E393E00BDA8091F5
:101F2000230390912403F2D963ED72E083E393E0FD
:101F300001DA8091200390912103E8D9C0901E031B
:101F4000D0901F038091260390912703C81AD90AC5
:101F500068EE72E083E393E0EDD9A601D7FE02C0FC
:101F600050E040E0052E000C660B770B2AE083E37F
:101F700093E082D96EE472E083E393E06ED96BEF75
:101F800072E083E393E0D6D980911E0390911F0302
:101F9000BDD96EE073E083E393E0CCD98091260352
:101FA00090912703B3D96EE472E083E393E055D9AF
:101FB0000E9460053BCD1D3008F0D0CCEACC6CD03F
:101FC00008F481E0089594D088F09F5790F0B92FDD
:101FD0009927B751A0F0D1F0660F771F881F991F7E
:101FE0001AF0BA95C9F712C0B13081F09BD0B1E0B8
:101FF000089598C0672F782F8827B85F39F0B93FC8
:10200000CCF3869577956795B395D9F73EF490957F
:102010008095709561957F4F8F4F9F4F0895E894FD
:1020200009C097FB3EF490958095709561957F4F20
:102030008F4F9F4F9923A9F0F92F96E9BB279395CE
:10204000F695879577956795B795F111F8CFFAF4DE
:10205000BB0F11F460FF1BC06F5F7F4F8F4F9F4F0F
:1020600016C0882311F096E911C0772321F09EE86D
:10207000872F762F05C0662371F096E8862F70E0D3
:1020800060E02AF09A95660F771F881FDAF7880FAD
:102090009695879597F90895990F0008550FAA0B03
:1020A000E0E8FEEF16161706E807F907C0F012166B
:1020B0001306E407F50798F0621B730B840B950B6E
:1020C00039F40A2661F0232B242B252B21F40895C3
:1020D0000A2609F4A140A6958FEF811D811D089560
:1020E00057FD9058440F551F59F05F3F71F04795C9
:1020F000880F97FB991F61F09F3F79F087950895AE
:10210000121613061406551FF2CF4695F1DF08C0CC
:10211000161617061806991FF1CF869571056105E9
:1021200008940895E894BB2766277727CB0197F991
:102130000895B2DF08F48FEF08950BD078C069D00E
:1021400028F06ED018F0952309F05AC05FC0112412
:10215000EACFC6DFA0F3959FD1F3950F50E0551F4E
:10216000629FF001729FBB27F00DB11D639FAA27EC
:10217000F00DB11DAA1F649F6627B00DA11D661F3B
:10218000829F2227B00DA11D621F739FB00DA11D5C
:10219000621F839FA00D611D221F749F3327A00D16
:1021A000611D231F849F600D211D822F762F6A2FB2
:1021B00011249F5750408AF0E1F088234AF0EE0F37
:1021C000FF1FBB1F661F771F881F91505040A9F744
:1021D0009E3F510570F014C0A6CF5F3FECF3983ED0
:1021E000DCF3869577956795B795F795E7959F5FAB
:1021F000C1F7FE2B880F911D9695879597F9089545
:1022000097F99F6780E870E060E008959FEF80ECA9
:10221000089500240A94161617061806090608954C
:1022200000240A9412161306140605060895092EB2
:102230000394000C11F4882352F0BB0F40F4BF2B21
:1022400011F460FF04C06F5F7F4F8F4F9F4F089561
:10225000AA1BBB1B51E107C0AA1FBB1FA617B707CC
:1022600010F0A61BB70B881F991F5A95A9F78095E8
:102270009095BC01CD01089597FB072E16F40094AC
:1022800006D077FD08D0E4DF07FC05D03EF490953A
:1022900081959F4F0895709561957F4F0895A1E2B4
:1022A0001A2EAA1BBB1BFD010DC0AA1FBB1FEE1FD0
:1022B000FF1FA217B307E407F50720F0A21BB30B1B
:1022C000E40BF50B661F771F881F991F1A9469F797
:1022D00060957095809590959B01AC01BD01CF01F3
:1022E0000895EE0FFF1F881F8BBF0790F691E02D1A
:0622F0001994F894FFCFE1
:1022F60006090906000000000304052C1A18160238
:102306003132334134353642373839432A30234463
:102316005E00BC00770100000000F50460048D0437
:102326004105BE049C04B0040000000065022602BC
:10233600F7010000000028096004910590050D0AC8
:10234600002A4956414C49442056414C55452A00DD
:102356004749564520444953542E2028636D293A4F
:1023660000474956452054454D502E2028005345D8
:10237600545445442044495354414E43453A00631E
:102386006D005345545445442054454D502E3A0053
:10239600430050524F434553532043414E43454C0F
:1023A60045440043555252454E542054454D503AEB
:1023B600005365747465642064697374616E636543
:1023C6003A20005365747465642074656D70657297
:1023D60061747572653A200043757272656E742079
:1023E60064697374616E63653A2000496E69746945
:1023F600616C2064697374616E63653A200043758D
:0E2406007272656E7420556C7472613A20001B
:00000001FF
